:100000000C94BD050C9404060C9404060C94040690
:100010000C9404060C9404060C9404060C94040638
:100020000C9404060C9404060C9434260C940627B5
:100030000C9494190C9404060C9404060C94040675
:100040000C9404060C9404060C9404060C94040608
:100050000C9404060C94081A0C9404060C940406E0
:100060000C9404060C9404060C9404060C940406E8
:100070000C9404060C9404060C9404060C940406D8
:100080000C9404060C9404060C9404060C940406C8
:100090000C9404060C9404060C9404060C940406B8
:1000A0000C9404060C9404060C9404068A078C072E
:1000B00097078E07900792079407960799079B0763
:1000C0009D07A8079F07A107A307A507A707AA07DA
:1000D000BA0FBA0FEC0FEC0F2A104A10BA11BA116E
:1000E0008C10BA1139113911AA11BA11BA11B31100
:1000F0004611461146114611461146114611461148
:100100004611461146114611461146114611461137
:10011000571165116C1173117D114B124B125D1249
:100120005D1254125D125D125D124B124B12591288
:100130005D125D12591273279A278C289A278C28F2
:10014000E62709288C285F286E28165C1E001F00F1
:100150002000210022002300240025002600270083
:100160002D002E0000002A002B0014001A000800A9
:10017000150017001C0018000C00120013002F00BF
:1001800030003100390004001600070009000A00A1
:100190000B000D000E000F00330034002800D65C69
:1001A00000001D001B0006001900050011001000D2
:1001B000360037003800D75C0000E000E300E200C2
:1001C0002C00015301517C007D00A5003A003B004A
:1001D0003C003D003E003F00400041004200430023
:1001E0004400450000004C003500F400F000F5002C
:1001F0000000000000000000000000004600520067
:10020000000000007700F200F100F3007E00000023
:10021000000000000000000050004F000000E1005E
:100220000000FD00FE00FF000000000000000000D4
:10023000000000005100000000000000000000006D
:100240000000010000530000005244454255473A67
:1002500020656E61626C65642E0A000A00253038E4
:1002600062003A200025303258000A722F63203095
:10027000313233343536370A000A002530325820FF
:10028000006B6579626F6172645F7265706F727422
:100290003A20000A0025303258006B6579626F61A0
:1002A00072645F7365745F6C65643A2000290A00AC
:1002B0002575002F002575005D28002564002000AD
:1002C000256400200025640020002564007C0025B2
:1002D000303258006D6F7573656B6579205B6274A1
:1002E0006E7C782079207620685D287265702F6199
:1002F000636C293A205B006D6B5F776865656C5FA6
:1003000074696D655F746F5F6D6178203D20256451
:100310000A006D6B5F776865656C5F6D61785F7310
:1003200070656564203D2025640A006D6B5F74690B
:100330006D655F746F5F6D6178203D2025640A00F4
:100340006D6B5F6D61785F7370656564203D20251E
:10035000640A006D6B5F696E74657276616C203D36
:100360002025640A006D6B5F64656C6179203D2017
:1003700025640A006D6B5F776865656C5F74696DF5
:10038000655F746F5F6D6178203D2025640A006DA4
:100390006B5F776865656C5F6D61785F73706565CD
:1003A00064203D2025640A006D6B5F74696D655F94
:1003B000746F5F6D6178203D2025640A006D6B5F6E
:1003C0006D61785F7370656564203D2025640A0067
:1003D0006D6B5F696E74657276616C203D2025647B
:1003E0000A006D6B5F64656C6179203D2025640AAD
:1003F000000A00257500363A20776865656C5F74E1
:10040000696D655F746F5F6D61783A20000A002541
:100410007500353A20776865656C5F6D61785F734C
:10042000706565643A20000A00257500343A20742E
:10043000696D655F746F5F6D61783A20000A002511
:100440007500333A206D61785F73706565643A209A
:10045000000A00257500323A20696E746572766173
:100460006C286D73293A20000A00257500313A2066
:1004700064656C6179282A31306D73293A20000A4D
:10048000092D2056616C756573202D0A004D3E00C4
:100490004D25643E20003F007365742064656661ED
:1004A000756C740A00433E200077686572652064AD
:1004B000656C74613A20637572736F723D25642CAC
:1004C00020776865656C3D25640A5365652068740E
:1004D00074703A2F2F656E2E77696B697065646949
:1004E000612E6F72672F77696B692F4D6F7573651A
:1004F0005F6B6579730A000A092D204D6F7573656E
:100500006B6579202D0A4553432F713A097175693E
:10051000740A313A0964656C6179282A31306D7347
:10052000290A323A09696E74657276616C286D73B6
:10053000290A333A096D61785F73706565640A341E
:100540003A0974696D655F746F5F6D61780A353A59
:1005500009776865656C5F6D61785F737065656468
:100560000A363A09776865656C5F74696D655F7412
:100570006F5F6D61780A0A703A097072696E742053
:1005800076616C7565730A643A09736574206465F5
:100590006661756C74730A75703A092B310A646F61
:1005A000776E3A092D310A706775703A092B313030
:1005B0000A7067646F776E3A092D31300A0A7370DA
:1005C000656564203D2064656C7461202A206D613E
:1005D000785F7370656564202A2028726570656194
:1005E00074202F2074696D655F746F5F6D61782969
:1005F0000A003F004D3E2000433E20004C25640A87
:100600000074696D65725F72656164333228293ADE
:10061000202530346C580A006B6579626F61726412
:100620005F69646C653A2025580A006B6579626FD2
:100630006172645F70726F746F636F6C3A202558DB
:100640000A00686F73745F6B6579626F6172645FD3
:100650006C65647328293A2025580A000A092D2060
:10066000537461747573202D0A004743433A203454
:100670002E392E32204156522D4C4942433A2031D8
:100680002E382E3073766E204156525F41524348C9
:100690003A20617672350A004F5054494F4E533A12
:1006A000204C554641204D4F5553454B455920450B
:1006B000585452414B455920434F4E534F4C4520BF
:1006C000434F4D4D414E4420343039360A00425597
:1006D000494C443A2022302E362E3234352D362DD8
:1006E0006764316637333522202832313A32313A65
:1006F0003539204A616E2032332032303139290AAF
:10070000005649443A20307846454544284B42201B
:10071000506172616469736529205049443A203000
:10072000783630363028563630205479706520526D
:1007300029205645523A203078303030310A004472
:100740004553433A2046697273742066756C6C7920
:100750002070726F6772616D6D61626C65204B42D3
:100760005020363025206B6579626F6172640A0013
:100770000A092D2056657273696F6E202D0A000AD2
:10078000092D20436F6E736F6C65202D0A4553430E
:100790002F713A09717569740A6D3A096D6F757335
:1007A000656B65790A000A092D204D616769632030
:1007B0002D0A443A094465627567204D657373617B
:1007C000676520546F67676C650A583A094D617414
:1007D000726978204465627567204D6F64652054A6
:1007E0006F67676C65202D2053686F77206B657984
:1007F0007072657373657320696E206D61747269C0
:100800007820677269640A4B3A094B6579626F61B7
:10081000726420446562756720546F67676C652059
:100820002D2053686F77206B657970726573732024
:100830007265706F72740A4D3A094465627567207B
:100840004D6F75736520546F67676C650A563A097A
:1008500056657273696F6E0A533A09537461747501
:10086000730A433A09416374697661746520436F82
:100870006E736F6C65204D6F64650A46312D46318D
:10088000303A0953776974636820746F204C61793A
:10089000657220302D392028463130203D204C30E3
:1008A000290A302D393A0953776974636820746FC7
:1008B000204C6179657220302D390A4553433A093D
:1008C00053776974636820746F204C617965722076
:1008D000302028616C7465726E617465206B657977
:1008E0002031290A47524156453A095377697463C2
:1008F0006820746F204C6179657220302028616C0B
:100900007465726E617465206B65792032290A50B6
:10091000415553453A094A756D7020746F20426FF6
:100920006F746C6F616465722028526573657429F9
:100930000A003F000A6D6F7573653A206F66660A9C
:10094000000A6D6F7573653A206F6E0A000A6B6559
:1009500079626F6172643A206F66660A000A6B659D
:1009600079626F6172643A206F6E0A000A6D617479
:100970007269783A206F66660A000A6D617472695E
:10098000783A206F6E0A000A64656275673A206FD4
:1009900066660A000A64656275673A206F6E0A002F
:1009A0000A0A4A756D70696E6720746F20626F6FF6
:1009B000746C6F616465722E2E2E2000433E200001
:1009C0005B735D004B6579626F6172642073746163
:1009D00072742E0A005B575D005B535D005B525DD5
:1009E000005B445D005B435D0004033000000016C3
:1009F0000356003600300020005400790070006576
:100A00000020005200000018034B0042002000505C
:100A100000610072006100640069007300650000FD
:100A2000000403090409025B00030100A0FA0904A1
:100A30000000010301010009211101000122400011
:100A40000705810308000A090401000103000000F2
:100A50000921110100012285000705820320000AF7
:100A60000904020002030000000921110100012213
:100A7000220007058303200001070503032000016E
:100A80001201100100000008EDFE6060010001028B
:100A900003010631FF0974A1010975150026FF0045
:100AA0009520750881020976150026FF00952075AE
:100AB000089102C005010902A10185020901A100F6
:100AC0000509190129051500250195057501810202
:100AD0009501750381010501093009311581257FD3
:100AE00095027508810609381581257F95017508DD
:100AF0008106050C0A38021581257F95017508814C
:100B000006C0C005010980A1018503160100260366
:100B1000001A81002A8300751095018100C0050C20
:100B20000901A1018504160100269C021A01002A70
:100B30009C02751095018100C005010906A10105FF
:100B40000719E029E715002501950875018102952F
:100B5000017508810105081901290595057501919F
:100B6000029501750391010507190029FF1500265B
:100B7000FF00950675088100C00011241FBECFEF4D
:100B8000DAE0DEBFCDBF04B603FE27C080910E02BF
:100B900090910F02A0911002B09111028730904BFA
:100BA000A740B04BD1F410920E0210920F02109297
:100BB00010021092110214BE84B7877F84BF0FB653
:100BC000F894A895809160008861809360001092ED
:100BD00060000FBEE0E0F8E3099511E0A0E0B1E0AD
:100BE000EAE7F2E502C005900D92AC33B107D9F700
:100BF00022E0ACE3B1E001C01D92AE30B207E1F7F4
:100C00000E944F230C943B290C940000FF93EF9318
:100C1000E0913C01F0913D01309709F00995EF9189
:100C2000FF910895FC018591803011F0EFDFFBCF3B
:100C30000895FF27E0E230E247FF0CC0419597FF9F
:100C400009C0EDE26095709580959095611D711DCC
:100C5000811D911D27FF02C0219530E350E2AA2794
:100C6000660F771F881F991FAA1FA41710F0A41BD7
:100C700063955A95A9F7AA3008F0A95FA05DAF93D4
:100C8000F395611571058105910541F7ED3211F478
:100C9000EF93F395F21718F43F93F395FBCF8F91F1
:100CA000B5DFFA95E1F70895E991F99185918030E2
:100CB00021F0853219F0AADFF9CF089520E0E894F9
:100CC00055915532C1F3503311F4689455915A330C
:100CD00048F4505390F3220F022E220F220F200DC2
:100CE000250FF4CF0EF4219589919991533619F37C
:100CF000533729F1533559F1BC0188279927E894D6
:100D00005C3621F48991999168945591543639F45F
:100D100046EF7EF077FF0DC08FEF9FEF0AC055378B
:100D20004AE039F0583540E121F0523642E009F00E
:100D30000895FF93EF937DDFEF91FF91B7CFFF937E
:100D4000EF93FC0181918030B9F360DFFBCFFF931B
:100D5000EF9368DFF1CFDF93CF93CDB7DEB7259662
:100D6000A3DFCF91DF91089581E0089581E0089598
:100D70000C94B6060E949318811102C00E940119BA
:100D80000C94CD0A0C94D00A08950C94C4060C94CB
:100D9000C50608950E9439120E94C9062FEF84E308
:100DA0009CE0215080409040E1F700C000000C948E
:100DB0002E1AFF920F931F93CF93DF938C01FC01A8
:100DC000C081D18180916701811113C08281882304
:100DD00049F0CE010E946B17F82E682FCE010E94B9
:100DE000101704C0CE010E943F17F82EBE018F2DB0
:100DF00004C0CE010E946B17BE010E945E08EC0188
:100E0000B8010E94B806882309F44DC1C63DFCE52F
:100E1000DF0709F4AFC0B0F4C531ECE5DE0768F4D4
:100E2000C230FCE5DF0708F053C0C1158CE5D807D8
:100E300001F1C130DC4529F129C1C631DC4509F495
:100E4000FEC024C1CB3D8CE5D80791F150F4C73DDD
:100E5000FCE5DF0709F4B1C0C83DDC4509F4D4C0A6
:100E600015C1CC3DECE5DE0751F1CD3DDC45C1F0CF
:100E70000DC1F8018281882309F415C10E94CA06B8
:100E800012C1F8018281882309F40DC18091DD012E
:100E900081608093DD018AE492E00E94120603C122
:100EA000F8018281882309F4FEC00E940119FBC069
:100EB000F8018281882309F4F6C080E006C0F801B9
:100EC0008281882309F4EFC082E00E94F723EBC0FF
:100ED000F8018281882309F4DEC00E9493188111F1
:100EE00002C00E9401190E94A61890E0909300028F
:100EF0008093FF01FE01E350FC45E231F10530F43F
:100F0000EA5AFF4F8091FF010C94DF288091FF0186
:100F1000816027C0826025C0846023C0806121C0B9
:100F200080621FC080641DC080681BC084608860B0
:100F300018C08E7F16C08D7F14C08B7F12C08F7E2D
:100F400010C08F7D0EC08F7B0CC08F770AC08B7F47
:100F5000877F07C087FB222720F991E0922790FB2B
:100F600087F98093FF018091FF010E94AA180E94D7
:100F7000391299C0F8018281882351F010924301FF
:100F80000E94C6199093400180933F0182E022C0E5
:100F90008091430181110FC080913F0190914001E8
:100FA0000E94DE19883C910530F486E20E94D50D3E
:100FB00086E20E940E0F82E024C0F801828188231D
:100FC00061F0109244010E94C619909342018093EF
:100FD000410180E20E94760F66C080914401811138
:100FE0000FC080914101909142010E94DE19883C1E
:100FF000910530F487E20E94D50D87E20E940E0F22
:1010000080E20E947D0F4FC0F80182818111D9CF0B
:10101000809144018111F4CF80914101909142016E
:101020000E94DE19883C910558F780E20E947D0FEE
:1010300088E20E94D50D88E20E940E0F34C00E9403
:101040003C18282FF8018281409100015091010144
:10105000882379F02A7A91E009F490E090933E0198
:10106000911102C069E201C065E3CA010E9435190D
:101070000AC080913E01811102C069E201C065E3AE
:10108000CA010E9437190E9409180DC081E080939F
:10109000430180934401C801DF91CF911F910F91CB
:1010A000FF900C94B40680E0DF91CF911F910F91D7
:1010B000FF90089580E090E008950895E72FF0E014
:1010C00098E0899FE00DF11D112483E0EE0FFF1FD2
:1010D0008A95E1F7E60FF11DEE0FFF1FE65BFE4F6D
:1010E000859194910895880F991FFC01E55AFD4F51
:1010F000859194910895CF93DF930E945E080E949A
:101100002C0AEC01811520E59207F0F5811530E4F9
:10111000930708F020C1883E910500F5803E9105B7
:1011200008F096C1883A910570F4853A910508F067
:101130009AC08130910509F48BC108F43CC1049731
:1011400008F086C138C18F3B910508F497C0803CF8
:10115000910508F430C1805C9109EFC0811590427F
:1011600058F4C11581E0D80708F072C1C03FD1051D
:1011700008F421C1D0656CC1C11590E3D90708F00E
:10118000E0C0CE019F70D9C0811525E5920708F017
:1011900043C0811534E5930708F0F4C0811542E59A
:1011A000940708F5C11581E5D80708F0D7C02C2FA2
:1011B000237081E090E002C0880F991F2A95E2F722
:1011C0009C689E0174E0369527957A95E1F7237027
:1011D000922BCF70C695C69530E2C39FE0011124D3
:1011E000C82BD92B35C1869586959E012370332750
:1011F000C115D34508F0B7C040E2849FC001112457
:10120000C1E0D0E002C0CC0FDD1F2A95E2F78C2BA5
:101210009D2BEC01DC681CC1811529E5920778F44F
:10122000811538E5930708F0B2C08115964508F09E
:10123000C2C0CF71DD27DC2FCC27D06209C1C11518
:101240008AE5D80708F4A8C0CE01905681159042CF
:1012500008F0B1C08D2F8F710E94A90ADD27D062DE
:101260008F71D82BF5C0853A910509F4A7C0863A4D
:10127000910509F0A6C0C2E8D0E4EAC0883A910519
:1012800009F4A2C0893A910509F4A1C08A3A9105EE
:1012900009F4A0C08B3A910509F49FC08C3A9105DE
:1012A00009F49EC08B3B910509F49DC08C3B9105D0
:1012B00009F49CC08D3A910509F49BC0803B9105CF
:1012C00009F49AC08E3A910509F499C08F3A9105B4
:1012D00009F498C0813B910509F497C0823B9105C0
:1012E00009F496C0833B910509F495C0843B9105B0
:1012F00009F494C0853B910509F493C0863B9105A0
:1013000009F492C0873B910509F491C0883B91058F
:1013100009F490C0893B910509F48FC08D3B91057C
:1013200009F48EC08E3B910509F48DC08A3B91056E
:1013300009F48CC0C0E0D4E48BC00E947308EC01B7
:1013400087C0CE019927D3FF03C0EC01D86C80C0C1
:10135000EC01D06C7DC0DF70D06A7AC0DC2FCC2766
:10136000C16FD06A75C040E2849FC0011124C1E002
:10137000D0E002C0CC0FDD1F2A95E2F7C82BD92B95
:10138000DA6866C0D82FCC27C46FD06A61C0D82F66
:10139000CC27C06FD06A5CC08C2F8F70806E90E0BD
:1013A000906A24E0D695C7952A95E1F7CF709C0105
:1013B0003C2BE9014DC0C0E0D0E04AC0C1E8D0E418
:1013C00047C0C3E8D0E444C0C2EED4E441C0C9EE93
:1013D000D4E43EC0CAEED4E43BC0C5EBD4E438C08C
:1013E000C6EBD4E435C0C3EBD4E432C0C4EBD4E4E0
:1013F0002FC0C7EBD4E42CC0CCECD4E429C0CDEC96
:10140000D4E426C0C3E8D5E423C0CAE8D5E420C0AC
:10141000C2E9D5E41DC0C4E9D5E41AC0C1E2D6E4EE
:1014200017C0C3E2D6E414C0C4E2D6E411C0C5E2DA
:10143000D6E40EC0C6E2D6E40BC0C7E2D6E408C0CC
:10144000CFE6D4E405C0C0E7D4E402C0CAE2D6E4E3
:10145000CE01DF91CF9108958238910549F1B0F422
:101460008133910509F458C048F48932910509F493
:101470004EC08A32910509F454C008958533910510
:1014800009F440C08933910599F00895833E910590
:1014900029F138F4803E910591F0823E9105A1F04A
:1014A0000895863E9105F9F0873E910531F1089542
:1014B0002091FF0120FD3AC021FD38C008958091A0
:1014C000FF0180FD35C032C08091FF0182FF32C034
:1014D0008091FF0184FD30C083EE39C08091FF010F
:1014E00082FD28C0F5CF8091FF0183FF27C0809146
:1014F000FF0184FD21C087EE2AC08091FF0183FD9A
:101500001DC0F5CF8091FF0185FD1AC01BC08091E1
:10151000FF0185FD17C014C08091FF0186FD14C036
:1015200015C08091FF0186FD11C00EC080EE0FC076
:1015300089E30DC082EE0BC080E009C086EE07C0D3
:1015400089E205C085E303C08AE201C081E390E03F
:1015500008959091FF0192FF0DC0282F2871283027
:1015600019F4877F846006C0282F2471243011F479
:101570008B7F886093FF0DC0282F2871283119F4C4
:10158000877E846106C0282F2471243111F48B7E5C
:10159000886194FD877E089508950C94CC0A08957F
:1015A0000C94CF0AEBE1F1E041E050E028E02E0F8F
:1015B0009191A92FA295AF70B0E091963C9191972F
:1015C0009F70BA0102C0660F771F9A95E2F7CB01B0
:1015D0008095832391968C932E13EACFA3E1B1E0FB
:1015E00041E050E028E02A0F8D91E82FE295EF705E
:1015F000F0E031A18F70BA0102C0660F771F8A95A3
:10160000E2F7CB01962F9095932391A392A1892B7A
:1016100082A32A13E9CFA5E4B1E0EDE4F1E088E08C
:101620008E0F11921D928E13FCCF88E00E94F30B57
:101630000C94BA064F925F926F927F928F929F9214
:10164000AF92BF92CF92DF92EF92FF920F931F93D0
:10165000CF93DF932BE1422E21E0522EADE4B1E097
:1016600020E001E010E038E0932E9A0E7D018C908E
:101670001C92E20189912E01E82FE295EF70F0E0D3
:1016800031A18F70A80102C0440F551F8A95E2F75F
:10169000CA01342B31A342A1382F3095432342A3F2
:1016A00050EA5A95F1F793E1C92E91E0D92E40E026
:1016B00050E0E60179906E01672D62956F7070E0E1
:1016C000EB01A8A06C90B12C772D7F7002C0B5946F
:1016D000A7947A95E2F7A0FC07C0602F042E01C002
:1016E000660F0A94EAF701C060E066296C934F5FC9
:1016F0005F4F48305105E9F691A1392331A392A1FA
:10170000892B82A3119681E0F7019081891201C093
:1017100080E0282B9A12AACF48E065E471E08DE4BE
:1017200091E00E94F40B0E94C20681E0DF91CF910C
:101730001F910F91FF90EF90DF90CF90BF90AF90EF
:101740009F908F907F906F905F904F900895E82FBB
:10175000F0E0EB5BFE4F80810895CF92DF92EF9235
:10176000FF920F931F93CF93DF938AE692E00E943C
:10177000120685E4E82E81E0F82EC0E0D0E095E680
:10178000C92E92E0D92E0DE512E0DF93CF93DF92C0
:10179000CF920E94AB0682E692E00E941206F70109
:1017A00081917F010E947D181F928F931F930F9349
:1017B0000E94AB068BE592E00E94120621968DB73F
:1017C0009EB708960FB6F8949EBF0FBE8DBFC83067
:1017D000D105D9F6DF91CF911F910F91FF90EF9036
:1017E000DF90CF9008950895FF920F931F93CF93AA
:1017F000DF93C82F192FF62E072FD42F222349F05D
:1018000081E0809357010E94C619909356018093FE
:101810005501809157018823B1F080915501909135
:1018200056010E94DE19069770F02C2FAF2DB02FB5
:10183000EC2FF12F8E2F821B8D1718F481918D9331
:10184000F9CF10925701DF91CF911F910F91FF9027
:10185000089590935D0180935C010895E0915C018F
:10186000F0915D01309721F00190F081E02D099415
:1018700080E00895EF92FF920F931F93CF93DF9331
:10188000E0915C01F0915D013097B1F18C01028033
:10189000F381E02D09958091DD0182FF2DC080FF4D
:1018A00004C081E892E00E941206E80118E08BE78C
:1018B000E82E82E0F82E8091DD0180FF0BC0888148
:1018C0001F928F93FF92EF920E94AB060F900F90A2
:1018D0000F900F90115021961111EDCF8091DD01E5
:1018E00080FF0AC089E792E0DF91CF911F910F91AD
:1018F000FF90EF900C941206DF91CF911F910F9102
:10190000FF90EF900895E0915C01F0915D013097B8
:1019100039F022E0DC012C930480F581E02D09945C
:10192000089520915A0130915B018217930771F05D
:1019300090935B0180935A01E0915C01F0915D010D
:10194000309721F00680F781E02D099408952091C9
:101950005801309159018217930771F09093590102
:1019600080935801E0915C01F0915D01309721F086
:101970000084F185E02D0994089585B7806885BFBE
:1019800085B7806885BF089508950E94BD0C0C94AA
:10199000C40C81E008950E94BD190E94D20A0C94E3
:1019A000521ACF93C82F8091DD0182FF1EC080FFA5
:1019B00004C08AE992E00E9412068091DD0180FF56
:1019C0000CC01F92CF9385E992E09F938F930E9462
:1019D000AB060F900F900F900F908091DD0180FF6C
:1019E00004C083E992E00E9412068C2FCF910C94E0
:1019F000C706CF92DF92EF92FF920F931F93CF9380
:101A0000DF93CDB7DEB72B970FB6F894DEBF0FBECE
:101A1000CDBF0E941A0B0E94C90C811111C08FEF1B
:101A200089838A831B820E94C6198160782F9D83D7
:101A30008C8349815A816B818D810E94A10D56C092
:101A40008FE5C82E81E0D82E00E010E0E02E802F38
:101A50000E94A70BF60141916F01F42EF82631F494
:101A60000F5F1F4F0830110589F7D9CF9091DD0125
:101A700091FF04C08B870E94AD0B8B8520E030E086
:101A80004F2D50E0922FBA01022E02C07595679536
:101A90000A94E2F760FF24C02E83EF8221E030E059
:101AA000690102C0CC0CDD1C9A95E2F790E08C2114
:101AB0009D21892B09F420E028870E94C6198160A6
:101AC000782F9A8789874E815F8168858A850E94F1
:101AD000A10DF801E15AFE4F8081C826C08206C0E0
:101AE0002F5F3F4F2830310569F6BACF0E94671C3F
:101AF00010915E010E942E0C1817A1F00E942E0C6E
:101B000080935E012B960FB6F894DEBF0FBECDBF5B
:101B1000DF91CF911F910F91FF90EF90DF90CF90C9
:101B20000C94D10C2B960FB6F894DEBF0FBECDBF30
:101B3000DF91CF911F910F91FF90EF90DF90CF90A9
:101B40000895CF93DF93CDB7DEB72B970FB6F894F8
:101B5000DEBF0FBECDBF4F83588769877A878B87DB
:101B6000DE01119686E0FD0111928A95E9F785E084
:101B7000FE01379601900D928A95E1F749815A81CD
:101B80006B817C818D819E810E94E0142B960FB623
:101B9000F894DEBF0FBECDBFDF91CF910895FC0159
:101BA000808191810E94AA170895CF93DF931F929D
:101BB000CDB7DEB7882309F42DC1682F8238C1F470
:101BC0000E942E0C81FD26C169E380910001909155
:101BD00001010E9435190E9409182FEF81EE94E04F
:101BE000215080409040E1F700C0000069E319C037
:101BF000833811F50E942E0C80FD0CC163E58091A5
:101C00000001909101010E9435190E9409182FEFDF
:101C100081EE94E0215080409040E1F700C0000048
:101C200063E580910001909101010E9437190F90A6
:101C3000DF91CF910C9409188438C1F40E942E0CC6
:101C400082FDE8C067E480910001909101010E944B
:101C500035190E9409182FEF81EE94E02150804041
:101C60009040E1F700C0000067E4DBCF8CEF860F07
:101C7000813A70F4862F69830E94941F69818111D3
:101C8000C9C080910001909101010E943519CFCF08
:101C900080E2860F883048F4677081E001C0880FC9
:101CA0006A95EAF70E943F18C2CF8BE5860F833012
:101CB00088F4653A29F0663A31F083E890E005C08F
:101CC00081E890E002C082E890E00F90DF91CF9130
:101CD0000C94910C88E5860F873108F091C0683A22
:101CE00009F445C0693A09F445C06A3A09F445C0A7
:101CF0006B3A09F445C06C3A09F445C06B3B09F4F2
:101D000045C06C3B09F445C06D3A09F445C0603BE1
:101D100009F445C06E3A09F445C06F3A09F445C06C
:101D2000613B09F445C0623B09F445C0633B09F4DB
:101D300045C0643B09F445C0653B09F445C0663BBA
:101D400009F445C0673B09F445C0683B09F445C048
:101D5000693B09F445C06D3B09F445C06E3B09F48D
:101D600045C06A3B09F445C080E090E044C082EE83
:101D700090E041C089EE90E03EC08AEE90E03BC02A
:101D800085EB90E038C086EB90E035C083EB90E0C7
:101D900032C084EB90E02FC087EB90E02CC08CEC3D
:101DA00090E029C08DEC90E026C083E891E023C04C
:101DB0008AE891E020C082E991E01DC084E991E0C9
:101DC0001AC081E292E017C083E292E014C084E27C
:101DD00092E011C085E292E00EC086E292E00BC074
:101DE00087E292E008C08FE690E005C080E790E0CF
:101DF00002C08AE292E00F90DF91CF910C94A70C81
:101E0000603F40F0862F0E94ED1A0F90DF91CF9136
:101E10000C94DA1B0F90DF91CF910895882309F479
:101E200064C0823879F40E942E0C81FF5EC069E3A1
:101E300080910001909101010E9435190E940918BA
:101E400069E310C08338B1F40E942E0C80FF4DC0AE
:101E500063E580910001909101010E9435190E9473
:101E6000091863E580910001909101010E943719E2
:101E70000C940918843879F40E942E0C82FF35C026
:101E800067E480910001909101010E9435190E9440
:101E9000091867E4E7CF9CEF980F913A10F4682F88
:101EA000E1CF90E2980F983050F4877091E001C034
:101EB000990F8A95EAF7892F0E944518D9CF9BE59B
:101EC000980F933020F480E090E00C94910C98E50A
:101ED000980F973120F480E090E00C94A70C803F9D
:101EE00020F00E94551B0C94DA1B0895882321F0E2
:101EF0000E943F180C9409180895882321F00E942D
:101F000045180C94091808954F925F926F927F9232
:101F1000BF92CF92DF92EF92FF920F931F93CF93D6
:101F2000DF937C01D62FC72FFC01058102950F702E
:101F3000128111110E945C180E940218882379F006
:101F4000112369F080E28D0F883048F082E00E9412
:101F5000EB170E94021891E0B82EB92601C0B12CEF
:101F6000CC2EC2948FE0C822D12CF601E859FF4F45
:101F70000C94DF288C2F807FCF70882311F0C295BE
:101F8000C07F112399F0CC2309F4CFC180E28D0FDB
:101F9000883010F0D11104C08C2F0E943F1803C06C
:101FA0008C2F0E944F180E940918BFC18D2F0E94CC
:101FB0000E0FCC2309F4DEC180E28D0F883010F0C3
:101FC000D11104C08C2F0E94451803C08C2F0E9491
:101FD00055180E940918CEC18C2F807FCF70803297
:101FE00011F0C295C07FDD2319F0D130C9F022C0B5
:101FF000112371F0002341F0013031F40E94751873
:102000008C2B0E946F18B6C10E9475188C2B46C18C
:10201000002319F0013009F4ADC10E94721818C0F4
:10202000112321F0063008F0A5C10EC0053008F0DC
:10203000A1C10EC0112351F0002331F0F7018581B9
:1020400080FF73C18F7085838C2F28C101117EC1E1
:102050008C2F2AC18C2F86958695837090E00097EF
:1020600019F0019761F086C1112321F08D2F9C2F6B
:10207000937002C080E090E00E94910C8BC111230C
:1020800021F08D2F9C2F937002C080E090E00E9481
:10209000A70C80C11123F9F0D53F51F0D63F71F064
:1020A000D43FA9F48091F9019091FA0181600BC0AD
:1020B0008091F9019091FA01826005C08091F90147
:1020C0009091FA0184609093FA018093F9018D2F29
:1020D0000E94ED1A1EC0D53F51F0D63F71F0D43F9B
:1020E000A9F48091F9019091FA018E7F0BC0809143
:1020F000F9019091FA018D7F05C08091F9019091CD
:10210000FA018B7F9093FA018093F9018D2F0E9441
:10211000551B0E94DA1B3EC18C2F837009F050C002
:10212000111134C18D2F829586958770880F880F85
:102130009D2F9F70492E512C612C712C082E04C0AC
:10214000440C551C661C771C0A94D2F7D4FF14C0AB
:102150000FE010E020E030E0B901A80104C0440F16
:10216000551F661F771F8A95D2F7CB01BA0160957C
:1021700070958095909503C060E070E0CB01C695A6
:10218000C695C370D0E0C230D10561F0C330D1052F
:1021900081F06429752986299729219771F00E9479
:1021A0002516F4C064297529862997290E943716B7
:1021B000EDC00E942516C301B2010E941316E6C0AD
:1021C000112319F08C2F817001C08695882309F4A2
:1021D000DDC08D2F829586958770880F880F9D2F83
:1021E0009F70492E512C612C712C082E04C0440C78
:1021F000551C661C771C0A94D2F7D4FF14C00FE05C
:1022000010E020E030E0B901A80104C0440F551FE0
:10221000661F771F8A95D2F7CB01BA01609570953A
:102220008095909503C060E070E0CB01C695C6959F
:10223000C3704C2F50E04230510569F043305105D6
:1022400089F064297529862997294130510571F053
:102250000E94EB169BC064297529862997290E9444
:10226000FD1694C00E94EB16C301B2010E94D9165C
:102270008DC08D2F90E0FC01E05EF109E531F105A4
:1022800008F04FC0E858FF4F0C94DF28DF708C2F08
:102290008F71112331F00E9472168D2F0E94760FDC
:1022A00069C00E9493168D2F0E947D0F63C0112379
:1022B00041F0053008F05EC08C2F8F710E94B81677
:1022C00059C0063008F056C0F7CF112339F08C2FD3
:1022D0008F710E9472164EC01123C9F38C2F8F711B
:1022E0000E94931647C0112329F08C2F8F710E94F2
:1022F0005D1640C00E9458163DC0112349F0CF71B1
:102300008C2F0E94721663E08C2F0E94E21732C05D
:1023100081E00E94EB17023068F182E00E94EB1727
:1023200029C0112331F0002391F28D2F0E94D50D89
:1023300021C0002399F2D93349F45FEF67EE73E0CF
:10234000515060407040E1F700C000008D2F0E94A6
:102350000E0F10C04C2F4F706D2FC7010E945A08EE
:102360000E94841517C04C2F4F706D2FC7010E941B
:102370005D0810C088E0C816D10441F05CF0EAE0C6
:10238000CE1AD108F2E0CF16D10420F40E942E0C10
:102390000E94C706BB20F1F00E94DE1780FD1AC024
:1023A000F70112820E94D8170E947216C7010E947C
:1023B000F8110E94D817DF91CF911F910F91FF90D4
:1023C000EF90DF90CF90BF907F906F905F904F9095
:1023D0000C949316DF91CF911F910F91FF90EF9086
:1023E000DF90CF90BF907F906F905F904F90089557
:1023F0000F931F93CF93DF93EC01888199812B81F9
:102400003C81232BB9F09F3F11F48F3F99F0CE010F
:102410000E94D906882371F0688179818A810E949F
:10242000B5178C010E940F170E941016B801CE013B
:102430000E94840FDF91CF911F910F9108950E9408
:102440005C180E946C180E9409180E94021D0E94CC
:10245000DA1B80E090E00E94910C80E090E00C9408
:10246000A70C80910001909101010E9439190C94F0
:102470001F120E944C180C9431120E94AA17E92FC7
:10248000E295EF70F0E03297EE30F105B0F4E357EB
:10249000FF4F0C94DF28803F91F018F4803E68F4E1
:1024A0000EC0843F51F40BC0803E48F0813F29F4B8
:1024B00006C093FB882780F9089580E0089581E0A5
:1024C0000895CF93DF9300D000D01F92CDB7DEB731
:1024D0000F900F900F900F900F90DF91CF91089574
:1024E000CF93DF9300D000D000D0CDB7DEB72696D3
:1024F0000FB6F894DEBF0FBECDBFDF91CF91089528
:102500001F93CF93DF93C091680116E0809169011A
:10251000C81799F0D0E01C9FF0011D9FF00D112409
:10252000E659FE4F4081518162817381848195819A
:102530000E9470122196C770E9CFDF91CF911F9151
:10254000089540919A0150919B0160919C01709176
:102550009D0180919E0190919F010C947012809139
:102560009F0182958F7009F054C080919C0188234F
:1025700009F44FC080916801A091690160919A01AE
:1025800070919B0140919D0150919E01B6E08A1788
:1025900009F43FC090E041155105C1F17F3F11F4AE
:1025A0006F3FA1F1B89FF001B99FF00D1124E659DA
:1025B000FE4F218172132AC02081621327C022811D
:1025C000211124C0238134812417350710F42150B0
:1025D0003109241B350B283C3105C0F420919F01A3
:1025E0002F70206120939F0126E0289FF001299FF2
:1025F000F00D1124E159FE4F80818F70806180833E
:102600008AE991E00E94F8110C948012019687707B
:10261000BECF0895CF92DF92EF92FF920F931F9358
:10262000CF93DF93CDB7DEB762970FB6F894DEBFD6
:102630000FBECDBF8C0185E0F801DE011D96019033
:102640000D928A95E1F7D8014C9111965C91119702
:1026500012966C9112971396CD90DC90149730914E
:102660009A0170919B0180919D0190919E0100972C
:1026700009F46BC17F3F19F43F3F09F466C1E09054
:102680009C01EE2009F4C0C020919F01C816D90614
:1026900028F0F601E81BF90BCF0104C08095909556
:1026A0008C0D9D1DFF24F394883C910578F0F12C4E
:1026B000207F09F0C6C07C2DD98AC88A89890E94EA
:1026C00061128AE991E00E94F811B1C0822F807FE7
:1026D00009F046C0751314C0341312C0611110C044
:1026E0002F70206120939F010E94A1128AE991E03E
:1026F0000E94F81180919F01D80115968C932EC0ED
:10270000CD2819F15F3F11F44F3FF9F0F62E61111A
:102710001CC0809168012091690136E0821709F49C
:102720005AC090E0389FF001399FF00D1124E6590E
:10273000FE4F7181571306C07081471303C0728129
:10274000711103C001968770E9CFF62E662309F454
:1027500027C180919F01816080939F01F12C20C14E
:10276000751308C0341306C0611104C080919F0125
:10277000D801C3C04D875E878D859E856A8B0E9478
:102780003D126A898823E1F16623D1F120919F01EE
:10279000822F82958F7090E0029774F080919A0159
:1027A00090919B0198878F831986DB86CA862C8738
:1027B000CE0107960E94F81186E0F801AAE9B1E07F
:1027C00001900D928A95E1F70E94AF120E94A1122A
:1027D000FF24F394E5C04D875E878D859E850E941A
:1027E000AA17292F22952F7030E0223031050CF0E6
:1027F000CBC09F7009F0C5C0805E883008F4D0C09F
:10280000C8010E94F811E4CFC816D90608F453C0D5
:10281000F601E81BF90BCF01883C910508F450C084
:10282000F12C7C2DD98AC88A89890E946112EAE933
:10283000F1E086E0DF011D928A95E9F70E94A1127E
:10284000AFC0751314C0341312C0611110C0809151
:102850009F01F8018583C8010E94F81186E0EAE92A
:10286000F1E0DF011D928A95E9F7FE2C99C04D87B2
:102870005E878D859E856A8B0E943D126A898823BA
:1028800009F4BECF662309F4BBCF20919F01822FAC
:1028900082958F7090E002970CF48ECF80919A0110
:1028A00090919B019A8389831B82DD82CC822E8347
:1028B000CE0101967FCF809590958C0D9D1DACCF5C
:1028C000F62E662309F49CCF75132EC034132CC04A
:1028D00020919F0120FD1FC0822F82958F70D9F01B
:1028E000D80115962C9315978F3049F08F5F982F4C
:1028F0009295907F822F8F70892B15968C93C801AB
:102900000E94F81186E0F801AAE9B1E001900D9269
:102910008A95E1F793CF86E0F801AAE9B1E001904A
:102920000D928A95E1F73CC04D875E878D859E8527
:102930000E943D12811140CF80919F018160809360
:102940009F01C8010E94F8112BC0662309F458CFDB
:102950004D875E878D859E850E943D12F82E8823C7
:1029600009F44ECF86E0F801AAE9B1E001900D929A
:102970008A95E1F78AE991E00E94CF0D0E94AF129B
:102980005DCF811139CF0CC0243031050CF038CF28
:102990009F7009F431CFF8019581907F09F02CCF19
:1029A0008F2D62960FB6F894DEBF0FBECDBFDF91BC
:1029B000CF911F910F91FF90EF90DF90CF900895EE
:1029C0001F93CF93DF93CDB7DEB72C970FB6F89454
:1029D000DEBF0FBECDBF4F83588769877A878B874D
:1029E0009C87CE0107960E940A13882369F08F8185
:1029F00098852A853B85232BF1F19F3F09F063C021
:102A00008F3F09F060C037C086E0FE013796DE01D7
:102A1000119601900D928A95E1F76F817885EA858C
:102A2000FB85309741F17F3F11F46F3F21F12091F9
:102A3000690130E0C90101968770992740916801CA
:102A400050E08417950709F447C069837A83FD83B2
:102A5000EC8396E0929FD001939FB00D1124A6596C
:102A6000BE4FFE01319601900D929A95E1F7809349
:102A700069010E94801216E08091680190916901BD
:102A80008917C1F1189FC001112486599E4F0E94D9
:102A90000A13882379F1E09168011E9FF001112447
:102AA000E659FE4F40815181628173818481958115
:102AB0000E9470128091680190E0019687709927BA
:102AC00080936801D9CF4F81588569857A858B8538
:102AD0009C850E947012CFCF0E943912109269011A
:102AE00010926801EAE9F1E086E0DF011D928A9523
:102AF000E9F7C1CF2C960FB6F894DEBF0FBECDBF5D
:102B0000DF91CF911F910895EF92FF920F931F9342
:102B1000CF93DF938C01892B09F46CC0F12CEE2448
:102B2000E394E8012196F8018491843740F48430DD
:102B300008F051C0813081F0823019F15BC08537D7
:102B400009F444C0A8F19CE7980F903708F052C0F0
:102B50008F770E940E0F41C00E5F1F4FFE01C49180
:102B600080E28C0F883048F4C7708E2D01C0880F2A
:102B7000CA95EAF70E945F1814C08C2F0E94D50DE9
:102B80002DC00E5F1F4FFE01C49180E28C0F883074
:102B900058F4C7708E2D01C0880FCA95EAF70E94BD
:102BA00065180E9409181AC08C2F0E940E0F16C0BB
:102BB0000E5F1F4FFE01C491CC2381F08FE99FE08F
:102BC0000197F1F700C00000C150F6CF0E5F1F4F14
:102BD000FE01F49003C00E94D50D8E018F2D882335
:102BE00009F49FCFEFE9FFE03197F1F700C0000053
:102BF0008150F5CFDF91CF911F910F91FF90EF9012
:102C0000089508950C9401160E9402166093CC0159
:102C10007093CD018093CE019093CF010C941F123D
:102C200008950C9404160F931F930091CC011091FA
:102C3000CD012091CE013091CF01602B712B822BE1
:102C4000932B1F910F910C9404160F931F930091D7
:102C5000CC011091CD012091CE013091CF016023A4
:102C60007123822393231F910F910C9404160F93C9
:102C70001F930091CC011091CD012091CE01309194
:102C8000CF0160277127822793271F910F910C9402
:102C9000041608950C9449160E944A166093C801C0
:102CA0007093C9018093CA019093CB010C941F12B9
:102CB00060E070E0CB010C944C160F931F9341E041
:102CC00050E060E070E08A019B0104C0000F111F1A
:102CD000221F331F8A95D2F7C901B8011F910F91A6
:102CE0000C944C160F931F9341E050E060E070E0AD
:102CF00004C0440F551F661F771F8A95D2F7809135
:102D0000C8019091C901A091CA01B091CB018A017B
:102D10009B01082B192B2A2B3B2BC901B8011F91B2
:102D20000F910C944C160F931F9341E050E060E01C
:102D300070E004C0440F551F661F771F8A95D2F7B5
:102D400040955095609570958091C8019091C9010A
:102D5000A091CA01B091CB018A019B0108231923DC
:102D60002A233B23C901B8011F910F910C944C16E3
:102D70000F931F9341E050E060E070E004C0440F07
:102D8000551F661F771F8A95D2F78091C8019091D1
:102D9000C901A091CA01B091CB018A019B0108270A
:102DA00019272A273B27C901B8011F910F910C94BD
:102DB0004C160F931F930091C8011091C9012091E7
:102DC000CA013091CB01602B712B822B932B1F9169
:102DD0000F910C944C160F931F930091C801109102
:102DE000C9012091CA013091CB0160237123822354
:102DF00093231F910F910C944C160F931F930091E6
:102E0000C8011091C9012091CA013091CB016027FE
:102E10007127822793271F910F910C944C160895C8
:102E200028E0929F800D1124A82FA695A695A6951F
:102E3000877051E001C0550F8A95EAF785E0A89F99
:102E4000D001112420E030E070E0F901EA0FFB1F0F
:102E5000E056FE4F4081CB01022E02C09695879529
:102E60000A94E2F781709927819584278523842726
:102E700080832F5F3F4F2530310539F7089528E0D3
:102E8000929F800D1124682F669566956695982F00
:102E9000977085E0689FB001112440E050E080E029
:102EA000FA01E60FF71FE056FE4F208130E0092EB1
:102EB00002C0369527950A94E2F721703327042E35
:102EC00001C0220F0A94EAF7822B4F5F5F4F453013
:102ED000510531F70895CF92DF92EF92FF920F9351
:102EE0001F93CF93DF938C01C090CC01D090CD0184
:102EF000E090CE01F090CF018091C8019091C9017E
:102F0000A091CA01B091CB01C82AD92AEA2AFB2A8A
:102F1000CFE1D0E0D701C6010C2E04C0B695A7952D
:102F2000979587950A94D2F780FF06C0B8018C2F39
:102F30000E947B08019721F4219760F780E001C08F
:102F40008C2FDF91CF911F910F91FF90EF90DF9029
:102F5000CF900895CF93DF93EC010E946B17BE01D1
:102F60000E947B08DF91CF9108951F93CF93DF9349
:102F7000EB0190916701992321F0CB010E94AA17E0
:102F800013C0882349F0CB010E946B17182F682FBC
:102F9000CE010E94101704C0CB010E943F17182FCA
:102FA000BE01812F0E947B08DF91CF911F91089570
:102FB0008091D00185958595859508958091D00162
:102FC0008770089598E0899F90011124262B209303
:102FD000D0010C9472162091D001809582238093A9
:102FE000D001982F977069F430E0482F082E000C1C
:102FF000550B2417350729F08595859585950C94F3
:10300000931608959091D001977081E009F480E0C3
:103010000895E0910001F09101018091DC0180832D
:10302000E0910001F091010190818091DB01892BF9
:103030008083E0910001F091010190818091DA019B
:10304000892B80838091D101882381F0E091000158
:10305000F09101019081892B8083809100019091F2
:1030600001010E94031981111092D1018091000188
:10307000909101010C943A0C8091DC01089590919B
:10308000DC01892B8093DC01089580959091DC010F
:1030900089238093DC0108951092DC0108959091BA
:1030A000DB01892B8093DB01089580959091DB01F2
:1030B00089238093DB0108951092DB01089590919C
:1030C000DA01892B8093DA01089580959091DA01D5
:1030D00089238093DA0108951092DA01089580938C
:1030E000D10108951092D10108958091D1010895E0
:1030F00090933D0180933C0108958295982F9C7C8C
:10310000392F36953695282F237344E0249FC0012C
:103110001124932F982B292F2A7A2695892F85758C
:10312000880F822B089580E090E00E94012921E021
:103130008D3E9E4F09F020E0822F089582E090E0BE
:103140000C94F92883E090E00C94F92884E090E056
:103150000C94F928682F84E090E00C940729AB01C7
:10316000BC018FE090E00C941929AB01BC0183E114
:1031700090E00C94192960E070E0CB010C94B51834
:1031800060E070E0CB010E94AF180C94BB186DEEAC
:103190007EEF80E090E00E94252960E082E090E0F0
:1031A0000E94072960E083E090E00E9407291092C6
:1031B000CC011092CD011092CE011092CF0160E0AF
:1031C00084E090E00E94072960E085E090E00E94A2
:1031D000072960E086E090E00E9407296FEF87E012
:1031E00090E00E94072940E050E0BA0188E090E0BA
:1031F0000E94192960E08DE090E00E9407290C945C
:10320000C0180C94C718FC01329697E080E09150EA
:1032100029F021912223D9F38F5FF9CF08959C01E2
:10322000FC0132969FEF80E04191461789F09F3F65
:1032300019F4411101C0982F8F5F8630A9F79F3F85
:1032400039F0F901E90FF11D97FDFA9562830895B0
:103250000895FC01329608962081261301C0108241
:103260003196E817F907C1F708950C940F190C94DB
:103270002919029626E0FC0111922A95E9F7089592
:1032800008950C9440190E944119809105028430E0
:1032900049F11092DE0120E488E190E00FB6F89445
:1032A000A895809360000FBE2093600080E00E948C
:1032B000C7060E94411983B7817F846083BF83B7AB
:1032C000816083BF7894889583B78E7F83BF0FB664
:1032D000F894A895809160008861809360001092B6
:1032E00060000FBE089508950895CF930E9473194A
:1032F0000E941A0B0E947419C0E08C2F0E94A70B29
:10330000811104C0CF5FC830C1F701C081E0CF9107
:10331000089508950C9489190E9439120E942E0C68
:103320000E94C7060C948A191F920F920FB60F9233
:1033300011248F939F93AF93BF938091DE018111EE
:1033400013C08091FB019091FC01A091FD01B0910F
:10335000FE014196A11DB11D8093FB019093FC01DC
:10336000A093FD01B093FE01BF91AF919F918F910A
:103370000F900FBE0F901F90189582E084BD93E0D0
:1033800095BD9AEF97BD80936E0008952FB7F8947E
:103390008091FB019091FC01A091FD01B091FE0193
:1033A0002FBF08952FB7F8946091FB017091FC0135
:1033B0008091FD019091FE012FBF0895CF92DF9281
:1033C000EF92FF920F931F932FB7F8944091FB0158
:1033D0005091FC016091FD017091FE012FBF6A01C7
:1033E0007B01EE24FF248C0120E030E0C016D106E2
:1033F000E206F30610F4415051099A01281B390BDB
:10340000C9011F910F91FF90EF90DF90CF90089529
:1034100078941F920F920FB60F9211248F939F935F
:10342000AF93BF938091FB019091FC01A091FD01AE
:10343000B091FE010196A11DB11D8093FB019093F7
:10344000FC01A093FD01B093FE01BF91AF919F914C
:103450008F910F900FBE0F901F90189581E0809371
:10346000E00080E28093D8001092C9008FE19EE4D2
:103470000197F1F700C0000087E090EBDC0180933A
:103480000E0290930F02A0931002B09311029CE0E1
:1034900088E10FB6F894A895809360000FBE9093D2
:1034A0006000FFCF0E949318811102C00E94011991
:1034B0000E949E188093DD010E94A61890E09093D0
:1034C00000028093FF010E94A218682F70E080E044
:1034D00090E00C9411168091E10180FF0BC0609187
:1034E000050185E0689FB001112475956795759574
:1034F00067952BC081FF09C06091050185E0689F39
:10350000B00111247595679520C082FF07C06091B6
:10351000050185E0689FB001112417C09091E20178
:103520009923D1F060910401961788F72091050145
:1035300085E0289F90011124929FA001939F500D38
:10354000112470E0CA010E94CB286038710540F454
:103550006115710539F002C065E070E0862F0895AD
:103560008FE7089581E008958091E10180FF08C010
:103570006091030170E0759567957595679521C019
:1035800081FF06C06091030170E07595679519C0D1
:1035900082FF04C06091030170E010C09091E201CD
:1035A0009923C1F0609102019617A0F78091030161
:1035B000899FC001112470E00E94CB2860387105FA
:1035C00028F46115710521F0862F08958FE708957D
:1035D00081E0089561E070E0F4CF803F21F40E9423
:1035E0006B1A819504C0813F29F40E946B1A809365
:1035F000E6010895823F21F40E946B1A819504C070
:10360000833F29F40E946B1A8093E5010895893F56
:1036100019F40E94B41A05C08A3F31F40E94B41A0A
:1036200081958093E70108958B3F21F40E94B41A9D
:10363000819504C08C3F29F40E94B41A8093E8015C
:103640000895843F21F48091E401816017C0853F93
:1036500021F48091E401826011C0863F21F48091C1
:10366000E40184600BC0873F21F48091E40188600D
:1036700005C0883F31F48091E40180618093E401CA
:1036800008958D3F21F48091E10181600BC08E3F50
:1036900021F48091E101826005C08F3F29F480917F
:1036A000E10184608093E1010895803F39F48091C5
:1036B000E60187FF6CC01092E60169C0813F29F4E2
:1036C0008091E6011816BCF362C09091E501823F3B
:1036D00029F497FF5CC01092E50159C0833F19F4AB
:1036E0001916CCF354C0893F41F48091E7011816B4
:1036F0000CF04DC01092E7014AC08A3F29F4809136
:10370000E70187FF44C0F6CF8B3F39F48091E80191
:1037100087FF3DC01092E8013AC08C3F29F48091A8
:10372000E8011816BCF333C0843F21F48091E40112
:103730008E7F17C0853F21F48091E4018D7F11C0F9
:10374000863F21F48091E4018B7F0BC0873F21F4F9
:103750008091E401877F05C0883F31F48091E401C6
:103760008F7E8093E40113C08D3F21F48091E101AD
:103770008E7F0BC08E3F21F48091E1018D7F05C0CB
:103780008F3F29F48091E1018B7F8093E10180914B
:10379000E50181110EC08091E60181110AC080917E
:1037A000E701811106C08091E801811102C01092E9
:1037B000E20108958091DD0183FF7EC084ED92E0F7
:1037C0000E9412068091E4011F928F938FEC92E089
:1037D0009F938F930E94AB068DEC92E00E9412069D
:1037E0008091E501282F082E000C330B3F938F9317
:1037F0008AEC92E09F938F930E94AB0688EC92E054
:103800000E9412068091E601282F082E000C330B2F
:103810003F938F9385EC92E09F938F930E94AB062A
:1038200083EC92E00E9412068091E701282F082E77
:10383000000C330B3F938F9380EC92E09F938F9318
:103840000E94AB068EEB92E00E9412068091E80186
:10385000282F082E000C330B3F938F938BEB92E0B5
:103860009F938F930E94AB0688EB92E00E94120612
:103870008091E2011F928F9385EB92E09F938F934B
:103880000E94AB0683EB92E00E9412068091E10158
:103890001F928F9380EB92E09F938F930E94AB06D1
:1038A0008DEA92E00E9412068DB79EB74C960FB635
:1038B000F8949EBF0FBE8DBF83EE91E00E94830CF3
:1038C0000E94C6199093E0018093DF0108951F9331
:1038D000CF93DF938091DF019091E0010E94DE1988
:1038E000AC019091E201992321F02091060130E092
:1038F00006C0209107018AE0289F900111244217F9
:10390000530708F47BC08091E501C091E601D09196
:10391000E7011091E801811107C0C1116BC0D111FD
:1039200069C0111167C06AC09F3F19F09F5F9093F3
:10393000E201181624F40E946B1A8093E50180912D
:10394000E50187FF05C00E946B1A81958093E50110
:103950001C1624F40E946B1A8093E6018091E60104
:1039600087FF05C00E946B1A81958093E601309114
:10397000E5013323E1F02091E6012223C1F045EB7C
:103980003403C0011124892F990F990B009709F472
:1039900081E08093E50135EB2303C0011124892FD9
:1039A000990F990B009709F481E08093E6011D16A9
:1039B00024F40E94B41A8093E7018091E70187FF05
:1039C00005C00E94B41A81958093E701111624F472
:1039D0000E94B41A8093E8018091E80187FF05C036
:1039E0000E94B41A81958093E801DF91CF911F91D5
:1039F0000C94DA1B9F3F09F099CFA1CFDF91CF91B3
:103A00001F910895E3EEF1E086E0DF011D928A95B3
:103A1000E9F71092E2011092E101089587EF94E036
:103A20000E9412061F9281E08F931F9285E08F9370
:103A300089EA94E09F938F930E94AB060F900F90BA
:103A40000F900F900F900F9008958330E9F128F4B4
:103A5000813061F0823009F10895853009F462C047
:103A600008F449C0863009F474C0089580910701B4
:103A7000262F30E0280F311D2F3F310524F4680F29
:103A80006093070103C08FEF8093070180910701C6
:103A90001F928F9382EE93E072C080910601262FD1
:103AA00030E0280F311D2F3F310524F4680F60935B
:103AB000060103C08FEF80930601809106011F92DB
:103AC0008F9380ED93E05BC080910501262F30E05D
:103AD000280F311D2F3F310524F4680F6093050135
:103AE00003C08FEF80930501809105011F928F9392
:103AF0008DEB93E044C080910401262F30E0280F25
:103B0000311D2F3F310524F4680F6093040103C079
:103B10008FEF80930401809104011F928F9388EAB4
:103B200093E02DC080910301262F30E0280F311D36
:103B30002F3F310524F4680F6093030103C08FEF1A
:103B400080930301809103011F928F938FE893E08C
:103B500016C080910201262F30E0280F311D2F3F23
:103B6000310524F4680F6093020103C08FEF809346
:103B70000201809102011F928F9384E793E09F934B
:103B80008F930E94AB060F900F900F900F900895A7
:103B9000833081F128F4813059F08230D1F00895DA
:103BA000853009F449C0B8F1863009F456C008954B
:103BB00080910701681720F4861B8093070102C0DB
:103BC00010920701809107011F928F9385E693E081
:103BD00054C080910601681720F4861B809306016B
:103BE00002C010920601809106011F928F9383E517
:103BF00093E043C080910501681720F4861B8093F1
:103C0000050102C010920501809105011F928F935A
:103C100080E493E032C080910401681720F4861B91
:103C20008093040102C010920401809104011F924C
:103C30008F938BE293E021C080910301681720F4F9
:103C4000861B8093030102C010920301809103013F
:103C50001F928F9382E193E010C080910201681758
:103C600020F4861B8093020102C010920201809111
:103C700002011F928F9387EF92E09F938F930E9490
:103C8000AB060F900F900F900F900895CF93C82F11
:103C90001F928F938CEF95E09F938F930E94AB06BA
:103CA00081E090E0A0E0B0E0BC01CD0104C0660F6F
:103CB000771F881F991FCA95D2F70E9411160F907F
:103CC0000F900F900F90CF910C943912CF938732B1
:103CD00088F58E3108F00BC18E3009F489C0D8F414
:103CE000873009F461C08B3009F44FC0863009F089
:103CF00004C18091DD01817F8E7F8093DD018FE79C
:103D000097E00E9412068CEB99E00E94120681E077
:103D10008093EA0147C0863109F4B2C020F48031B3
:103D200009F47CC0EAC0893109F493C08B3109F4ED
:103D30004BC0E3C0883349F150F4893209F4D9C04B
:103D4000853309F4D6C0873209F4D3C0D6C0833492
:103D500009F4CFC028F48A3308F4CFC08953CAC00D
:103D6000883409F0CAC00E94391280EA99E00E94A2
:103D700012062FEF83ED90E3215080409040E1F751
:103D800000C000000E942E1A0DC086EA97E043C0D2
:103D900087E899E00E9412068091DD01897F877F84
:103DA0008093DD01C1E0AEC08091DD01C82FC095D8
:103DB000C170C0FB80F98093DD01CC2349F384E915
:103DC00099E00E9412069EC09091DD0191FBCC27E4
:103DD000C0F981E0C827892FC0FB81F98093DD01FC
:103DE000CC2319F08AE799E029C08CE699E013C04A
:103DF0009091DD0192FBCC27C0F981E0C827892F83
:103E0000C0FB82F98093DD01CC2319F08DE599E0A8
:103E100015C08DE499E00E941206C4CF9091DD0197
:103E200093FBCC27C0F981E0C827892FC0FB83F919
:103E30008093DD01CC2351F081E499E00E941206C9
:103E40008091DD0181608093DD015CC084E399E0B5
:103E5000E2CF80E797E00E9412068FE397E00E948E
:103E6000120681E097E00E9412068EEC96E00E9416
:103E7000120688E996E00E9412068AE696E0CBCF09
:103E80008CE596E00E9412060E942E0C1F928F93E2
:103E900082E496E09F938F930E94AB06809112017B
:103EA0001F928F938BE296E09F938F930E94AB06B5
:103EB0008091F7011F928F9388E196E09F938F93F3
:103EC0000E94AB060E94D2199F938F937F936F93AA
:103ED00081E096E09F938F930E94AB068DB79EB7CB
:103EE00042960FB6F8949EBF0FBE8DBF5BCF8D512B
:103EF00001C080E00E94461E55CF82E399E00E94F7
:103F00001206C0E08C2FCF91089580E0089580E0E4
:103F100008958E518A3030F4E82FF0E0ED5DFE4FC9
:103F20008081089580E00895CF93C82F8091EA01A1
:103F3000813071F020F0823009F44BC03FC1E09134
:103F40000001F09101018081823209F039C107C07E
:103F5000E0910001F09101018081823261F48C2FA7
:103F60000E94851F811104C08C2F0E94661E2FC0E5
:103F700081E090E02CC08C2F0E94871F811126C009
:103F8000C431E1F070F4CB3081F0C031D1F40E9443
:103F90000E1D84EF95E00E94120682E08093EA01F4
:103FA00015C0C93259F0C83361F48FE797E00E9419
:103FB000120688EF95E00E94120608C01092EA01EE
:103FC00001C182EF95E00E941206FCC081E0817081
:103FD000FBC0C43228F5CE3108F0C1C0CB30A1F10E
:103FE000D0F4C73009F0D0C08EE18093070182E39E
:103FF000809306018AE08093050184E180930401A7
:1040000088E08093030188E28093020188E994E0CC
:104010000E941206BCC0C33149F1C431C1F0B4C022
:10402000CB3409F4A6C028F4C93289F0C83361F052
:10403000ABC0C13509F49BC0C23509F496C0CE347B
:1040400009F0A2C06AE09BC00E940E1DA0C0809132
:10405000E901882319F01092E90199C085EA94E0FA
:104060000E94120681E08093EA01AEC08FE794E0DF
:104070000E9412068DE694E00E94120680910701CC
:104080001F928F938AE694E09F938F930E94AB06D2
:1040900088E694E00E94120686E594E00E941206EB
:1040A000809106011F928F9383E594E09F938F93F5
:1040B0000E94AB0681E594E00E94120682E494E03F
:1040C0000E941206809105011F928F938FE394E066
:1040D0009F938F930E94AB068DE394E00E9412069B
:1040E0008CE294E00E941206809104011F928F934B
:1040F00089E294E09F938F930E94AB0687E294E05D
:104100000E94120682E194E00E941206809103014F
:104110001F928F938FE094E09F938F930E94AB0642
:104120008DE094E00E94120686EF93E00E94120652
:10413000809102011F928F9383EF93E09F938F935F
:104140000E94AB0681EF93E00E9412068DB79EB7E6
:1041500048960FB6F8949EBF0FBE8DBF18C08C2F27
:104160000E94891F8093E90112C061E003C061E0F1
:1041700006C06AE08091E9010E94251D08C0809177
:10418000E9010E94C81D03C086E994E013C0809134
:10419000E901882369F01F928F9380E994E09F934F
:1041A0008F930E94AB060F900F900F900F9004C05A
:1041B0008DE894E00E94120681E006C01092EA01A8
:1041C00080E002C080E003CFCF9108958091F60196
:1041D00008959FB7F8941092ED019FBF909105024A
:1041E000943009F057C09091E9009F703091EC0035
:1041F000232F217030FD20E8922B23E02093E9004B
:104200002091EB0020FF43C02091EE0027FF3FC02C
:104210002091EB01222321F02091E80025FF37C0F7
:104220001092EB0126E03091E80035FD15C0309189
:104230000502343061F53091EB0035FD28C0215086
:1042400021F481E08093EB0122C0EFE9FFE0319798
:10425000F1F700C00000E7CF8093F1008091E80003
:1042600085FD0AC08091E80080FFFCCF8091E800C6
:104270008E778093E80006C08FB7F89421E02093F2
:10428000ED018FBF9F709093E90080E008959F70CB
:104290009093E9008FEF08950F931F93CF93DF93CF
:1042A00000D01F92CDB7DEB78C010E940724823068
:1042B00011F0843021F584E089831B830A8382E036
:1042C0008093E9008FEF9091E800815095FD06C042
:1042D00095ED9A95F1F700008111F5CF8091E800F6
:1042E00085FF0DC040E050E063E070E0CE01019634
:1042F0000E9424248091E8008E778093E8000F903C
:104300000F900F90DF91CF911F910F910895CF9350
:10431000DF9300D01F92CDB7DEB720910502243085
:1043200031F523E02983805891099B838A8382E0B9
:104330008093E9008FEF9091E800815095FD06C0D1
:1043400095ED9A95F1F700008111F5CF8091E80085
:1043500085FF0DC040E050E063E070E0CE010196C3
:104360000E9424248091E8008E778093E8000F90CB
:104370000F900F90DF91CF910895CF93DF93EC01D1
:104380000E940724823011F08430F9F482E0809397
:10439000E9009FEF8091E800915085FD06C085ED12
:1043A0008A95F1F700009111F5CF8091E80085FF23
:1043B0000CC040E050E066E070E0CE010E94242492
:1043C0008091E8008E778093E800DF91CF91089587
:1043D000CF93DF93EC010E940724823011F08430E8
:1043E00039F581E08093E9008FEF9091E8008150EA
:1043F00095FD06C095ED9A95F1F700008111F5CF76
:104400008091E80085FF14C040E050E068E070E073
:10441000CE010E9424248091E8008E778093E800EA
:1044200088E0FE01AEEEB1E001900D928A95E1F7D1
:10443000DF91CF91089585EE99E00E941206809158
:104440000402811109C00E94B9250E94162680919C
:10445000E20084608093E200089581EE99E00E947A
:1044600012061092040208958DED99E00C94120644
:1044700089ED99E00C94120685ED99E00E941206F0
:104480000C948C192091EC012F5F822F62E30E9423
:10449000BF28992319F02093EC0108951092EC01A4
:1044A0008091ED01882371F180910502843041F5FE
:1044B0008091E9008F702091EC00922F917020FD87
:1044C00090E8892B93E09093E9009091EB0090FFA6
:1044D00014C09091EE0097FF10C09091E80095FFF6
:1044E00003C01092F100F9CF9091E80090FF05C051
:1044F0009091E8009E779093E8008F708093E90098
:104500001092ED01089542E061EC81E00E943325B4
:1045100042E261EC82E00E94332542E261EC83E0FA
:104520000C94332580910702833009F460C030F485
:10453000813071F0823009F499C008958A3009F40D
:1045400085C08B3009F46BC0893009F0A7C020C04A
:1045500080910602813A09F0A1C08091E800877F2E
:104560008093E80080910A0290910B02892B21F43C
:1045700068E08EEE91E003C060E080E090E070E0E3
:104580000E946F248091E8008B778093E800089563
:1045900080910602813209F081C080910A029091D7
:1045A0000B02029708F07AC08091E800877F809321
:1045B000E8008091E80082FD05C08091050281112C
:1045C000F8CF6CC02091F3008091F20090E0922B24
:1045D000029729F48091F1008B7F813021F4809142
:1045E000F1008093F6018091E8008B7753C08091B1
:1045F0000602813A09F052C080910A0290910B02A2
:10460000892B09F04BC08091E800877F8093E800F8
:104610008091E80080FFFCCF8091120136C080912C
:1046200006028132D9F580910A0290910B02892B02
:10463000A9F58091E800877F8093E8000E946825B3
:1046400080910802809312010C9439128091060225
:10465000813221F58091E800877F8093E8000E94F5
:104660006825809109028093F701089580910602E0
:10467000813AA1F48091E800877F8093E8008091DF
:10468000E80080FFFCCF8091F7018093F1008091DA
:10469000E8008E778093E8000C946825089584B72D
:1046A000877F84BF0FB6F894A895809160008861D9
:1046B00080936000109260000FBE80E880936100DC
:1046C000109261000E94C50C0E94B9250E94162616
:1046D0008091E20084608093E20089EE90E20E9483
:1046E000781878940E94A4280E94CB0C88E091E06E
:1046F0000E94290C84EC99E00E9412068091050228
:10470000853089F480EC99E00E9412060E944319DA
:1047100080910302882391F30E947519882371F315
:104720000E940E24EBCF0E94F90CE8CF0C94982342
:10473000292F332723303105C9F064F421303105A6
:1047400081F02230310509F049C08BE590E025E287
:104750003AE048C02132310521F12232310571F1B0
:104760003DC082E190E020E83AE03CC099278130EA
:10477000910571F02CF4892B89F5E1E2FAE00DC086
:104780008230910541F0039749F5E9EEF9E005C063
:10479000E7E0FAE002C0EFEEF9E0849190E09F01DB
:1047A00021C063307105D0F4660F771FFB01EA5C0E
:1047B000FE4F2081318189E090E014C063307105A3
:1047C00068F4FB01EE0FFF1FE05DFE4F2081318199
:1047D000FB01E35DFE4F808190E004C080E090E04B
:1047E00020E030E0FA013183208308950895CF93CB
:1047F000C82F0E94F623C093F801CF9108958091AD
:104800000502843011F081E0089582E008958091DE
:10481000F801811102C00C94FF23089580E189BD45
:1048200082E189BD09B400FEFDCF8091D8008F7D63
:104830008093D8008091E00082608093E0008091B6
:10484000E00081FDFCCF0895CF92DF92EF92FF92BE
:104850000F931F93CF93DF93EC018B016A010E94AA
:104860008725811133C0C114D10439F0F60180814C
:104870009181081B190BC80FD91FE12CF12C0115D0
:10488000110519F18091E80085FD16C08091E800BE
:104890008E778093E800C114D10449F0F60180813D
:1048A0009181E80EF91EF182E08285E00FC00E943E
:1048B0008725882321F30AC089918093F100015054
:1048C0001109FFEFEF1AFF0ADACF80E0DF91CF91F5
:1048D0001F910F91FF90EF90DF90CF90089520915E
:1048E0000C0230910D022617370748F0611571054B
:1048F00039F42091E8002E772093E80001C0B90137
:1049000040E061157105A9F120910502222309F407
:1049100043C0253009F442C02091E80023FD40C087
:104920002091E80022FD32C02091E80020FFE9CF6D
:104930004091F3002091F20030E0342BFC01CF01D4
:104940006115710559F02830310540F4819180934B
:10495000F100615071092F5F3F4FF1CF41E02830E6
:10496000310509F040E02091E8002E772093E8001F
:10497000C8CF4111C9CF0AC080910502882361F0D8
:10498000853061F08091E80083FD0AC08091E800E5
:1049900082FFF2CF80E0089582E0089583E00895D9
:1049A00081E0089520910C0230910D0226173707FF
:1049B00048F06115710539F42091E8002E772093B5
:1049C000E80001C0B901FC0120E06115710591F119
:1049D00080910502882309F440C0853009F43FC066
:1049E0008091E80083FD3DC08091E80082FD2FC0EA
:1049F0008091E80080FFE9CF2091F3008091F200E0
:104A000090E0922B6115710559F08830910540F4C2
:104A100024912093F1003196615071090196F2CFF3
:104A200021E0089709F020E08091E8008E778093DC
:104A3000E800CBCF2111CCCF0AC08091050288239A
:104A400061F0853061F08091E80083FD0AC08091BB
:104A5000E80082FFF2CF80E0089582E0089583E0CD
:104A6000089581E00895982F973058F59093E900C4
:104A7000981739F07091EC002091ED005091F00002
:104A800003C0242F762F50E021FF19C03091EB0096
:104A90003E7F3093EB003091ED003D7F3093ED0091
:104AA0003091EB0031603093EB007093EC00209379
:104AB000ED005093F0002091EE0027FF07C09F5FAC
:104AC000D3CF8F708093E90081E0089580E008954E
:104AD0008091060287FF11C08091E80082FD05C029
:104AE000809105028111F8CF11C08091E8008B7789
:104AF0000BC080910502882349F08091E80080FF77
:104B0000F8CF8091E8008E778093E8000895209197
:104B1000E4003091E50095E64091EC00842F81702F
:104B200040FF22C08091E80080FD1CC080910502FA
:104B3000882391F0853091F08091EB0085FD10C0C5
:104B40004091E4005091E5004217530729F39A0180
:104B5000915011F784E0089582E0089583E008956C
:104B600081E0089580E008954091E80042FFDECFA3
:104B700008950E9427260E942F26E0EEF0E0808113
:104B800081608083E8EDF0E080818F77808319BCBD
:104B9000A7EDB0E08C918E7F8C9380818F7E808397
:104BA0001092040208950F931F93CF93DF930E94F6
:104BB00027260E942F26C8EDD0E088818F77888332
:104BC00088818068888388818F7D888319BC109252
:104BD000050210920102109203021092020200EEEE
:104BE00010E0F80180818B7F8083888181608883D9
:104BF00042E060E080E00E943325E1EEF0E0808159
:104C00008E7F8083E2EEF0E080818160808380810E
:104C100088608083F80180818E7F808388818061B5
:104C20008883DF91CF911F910F910895E8EDF0E017
:104C300080818F7E8083E7EDF0E0808181608083DA
:104C400084E082BF81E0809304020C94D325E8EDD8
:104C5000F0E080818E7F80831092E20008951092B0
:104C6000DA001092E10008951F920F920FB60F9292
:104C700011242F933F934F935F936F937F938F9361
:104C80009F93AF93BF93EF93FF938091E10082FFD7
:104C90000BC08091E20082FF07C08091E1008B7F12
:104CA0008093E1000E9442228091DA0080FF1FC0C1
:104CB0008091D80080FF1BC08091DA008E7F8093A6
:104CC000DA008091D90080FF0DC080E189BD82E1CA
:104CD00089BD09B400FEFDCF81E0809305020E94EA
:104CE0001B2205C019BC109205020E942D22809142
:104CF000E10080FF19C08091E20080FF15C0809123
:104D0000E2008E7F8093E2008091E20080618093D8
:104D1000E2008091D80080628093D80019BC85E0C1
:104D2000809305020E9438228091E10084FF30C008
:104D30008091E20084FF2CC080E189BD82E189BDC1
:104D400009B400FEFDCF8091D8008F7D8093D800FC
:104D50008091E1008F7E8093E1008091E2008F7E60
:104D60008093E2008091E20081608093E200809174
:104D70000102882311F084E007C08091E30087FDE1
:104D800002C081E001C083E0809305020E943C22C2
:104D90008091E10083FF29C08091E20083FF25C05C
:104DA0008091E100877F8093E10082E0809305029B
:104DB000109201028091E1008E7F8093E10080914A
:104DC000E2008E7F8093E2008091E2008061809318
:104DD000E20042E060E080E00E9433258091F00034
:104DE00088608093F0000E943422FF91EF91BF9180
:104DF000AF919F918F917F916F915F914F913F9173
:104E00002F910F900FBE0F901F9018951F920F9229
:104E10000FB60F9211242F933F934F935F936F938D
:104E20007F938F939F93AF93BF93CF93DF93EF9332
:104E3000FF93C091E900CF708091EC00D82FD17022
:104E400080FDD0E81092E9008091F000877F809388
:104E5000F00078940E944A271092E9008091F000B7
:104E600088608093F000CD2BCF70C093E900FF9154
:104E7000EF91DF91CF91BF91AF919F918F917F91F2
:104E80006F915F914F913F912F910F900FBE0F90B7
:104E90001F9018951F93CF93DF93CDB7DEB7AA97D6
:104EA0000FB6F894DEBF0FBECDBFE6E0F2E088E0BB
:104EB0008E0F9091F10091938E13FBCF0E9492225E
:104EC0008091E80083FF28C180910602909107023B
:104ED000492F50E04A30510508F01EC1FA01E5564D
:104EE000FF4F0C94DF28803821F0823809F014C17C
:104EF00008C08091020290910302992389F0826098
:104F00000FC080910A028F70873008F005C180932E
:104F1000E9008091EB0085FB882780F91092E90079
:104F20009091E800977F9093E8008093F1001092B1
:104F3000F100D0C0282F2D7F09F0EEC0882319F092
:104F4000823061F0E9C080910802813009F0E4C04C
:104F5000933009F080E0809303022EC08091080214
:104F600081112AC080910A028F702FEF280F2630FE
:104F700008F0D2C08093E9002091EB0020FF1CC014
:104F8000933021F48091EB00806214C09091EB008B
:104F900090619093EB0021E030E0A90102C0440F42
:104FA000551F8A95E2F74093EA001092EA0080913B
:104FB000EB0088608093EB001092E9008091E8009C
:104FC000877F8093E8000E946825A6C08111A4C055
:104FD000109108021F778091E3008078812B8093E5
:104FE000E3008091E800877F8093E8000E946825B5
:104FF0008091E80080FFFCCF8091E300806880937F
:10500000E300111102C082E001C083E08093050239
:1050100083C08058823008F07FC080910802909150
:1050200009028C3D53E0950779F583E08A838AE293
:1050300089834FB7F894DE01139620E03EE051E2F9
:10504000E32FF0E050935700E49120FF03C0E29576
:10505000EF703F5FEF708E2F90E0EA3010F0C79650
:1050600001C0C0968D939D932F5F243149F74FBFA8
:105070008091E800877F8093E8006AE270E0CE01CB
:1050800001960E946F2415C060910A0270910B0274
:10509000AE014F5F5F4F0E949623BC01892BE1F167
:1050A0009091E800977F9093E80089819A810E940F
:1050B000D2248091E8008B778093E8002DC080385F
:1050C00059F58091E800877F8093E8008091010284
:1050D0008093F1008091E8008E7773CF81111CC01E
:1050E000909108029230C0F48091E800877F80930D
:1050F000E800909301020E946825809101028111CD
:1051000006C08091E30087FD02C081E001C084E019
:10511000809305020E9483228091E80083FF0AC0E9
:105120008091E800877F8093E8008091EB008062A7
:105130008093EB00AA960FB6F894DEBF0FBECDBFEA
:10514000DF91CF911F910895CF938091050288231D
:10515000A1F0C091E900CF709091EC00892F81708F
:1051600090FD80E8C82B1092E9008091E80083FD53
:105170000E944A27CF70C093E900CF910895991BF0
:1051800079E004C0991F961708F0961B881F7A953E
:10519000C9F78095089597FB072E16F4009407D061
:1051A00077FD09D00E94E52807FC05D03EF49095D4
:1051B00081959F4F0895709561957F4F0895EE0FEB
:1051C000FF1F0590F491E02D0994AA1BBB1B51E130
:1051D00007C0AA1FBB1FA617B70710F0A61BB70B67
:1051E000881F991F5A95A9F780959095BC01CD010C
:1051F0000895F999FECF92BD81BDF89A992780B59F
:105200000895A8E1B0E042E050E00C942D29262F4B
:10521000F999FECF92BD81BDF89A019700B40216AC
:1052200039F01FBA20BD0FB6F894FA9AF99A0FBE5A
:1052300008950396272F0E9408290E940729252FE9
:105240000E940829242F0C9408290196272F0E94D8
:1052500008290C940729DC01CB01FC01F999FECF48
:1052600006C0F2BDE1BDF89A319600B40D924150EE
:0A5270005040B8F70895F894FFCFFE
:10527A00D2012808140A321EE620E821BD2187211E
:10528A004C21019091929394959697303132333410
:10529A00353637010203040506070809004085224E
:0C52AA00390BB40A920A370A500A690A4C
:00000001FF
